H0117042022003CONTRATOS E CONTRATANTES      I002023704025BANCO BRADESCO S/A                      607469480001120001136849844    36843399    MARCOS AURELIO GONCALVES RUAS           36849378          4025.RUAS@BRADESCO.COM.BR               0000000000B018                                          000001
D11JN12345678912345                                                            000 N00K740000000000000000000                                                                                                                                                              00000000000000000000        000002
D12                                                                                                                                            0000000000000123456789012                                                                000000000000000000000000000000237NN                           000003
D21                                                                                                                                                                                                                                                                                                   000004
D31000000000001234567891234500000000000S                                   48514725874000000000S00000000000000000000                                                                                                                               0000012345678901212345                            000005
