H0122042022005CONTRATOS E CONTRATANTES      I002023704025BANCO BRADESCO S/A                      607469480001120001136849844    36843399    MARCOS AURELIO GONCALVES RUAS           36849378          4025.RUAS@BRADESCO.COM.BR               0000000000B018                                          000001
D11JN12345678912345                                                            000 N00K740000000000000000000                                                                                                                                                              00000000000000000000        000002
D12                                                                                                                                            0000000000000                                                                            000000000000021042022220420220237NN                           000003
D21                                                                                                                                                                                                                                                                                                   000004
D31000000000001234567891234500000000000S                                   48514725874000000000S00000000000000000000                                                                                                                               00000                                              000005
D32                                                                                                                                                                 00000                                                                                                                             000006
D4100000000000000000022312345678912345000000000000010237000000                                                             00000                  00000000000010000000000000000 00237000000        0000N                   N00000000000000N0000000000000000000000000000000001001100000000000000       000007
D42NN101000000000000000000000000000000000000000000000000                                                                                     00000000000000000000000                                                                                                                                  000008
D51000000000000011234567891234500000000000001 2104202222042022000000000000000000000000600                                                                                                                                                                                                             000009
D51000000000000011234567891234500000000000006 2104202222042022000000000000000000000000600                                                                                                                                                                                                             000010
D51000000000000011234567891234500000000000007 2104202222042022000000000000000000000000600                                                                                                                                                                                                             000011
D51000000000000011234567891234500000000000010 2104202222042022000000000000000000000000600                                                                                                                                                                                                             000012
D51000000000000011234567891234500000000000014 2104202222042022000000000000000000000000600                                                                                                                                                                                                             000013
D51000000000000011234567891234500000000000015 2104202222042022000000000000000000000000600                                                                                                                                                                                                             000014
D51000000000000011234567891234500000000000045 2104202222042022000000000000000000000000600                                                                                                                                                                                                             000015
D51000000000000011234567891234500000000000051 2104202222042022000000000000000000000000600                                                                                                                                                                                                             000016
D51000000000000011234567891234500000000000052 2104202222042022000000000000000000000000600                                                                                                                                                                                                             000017
T11000018000000000000000000000000000000000000000000                                                                                                                                                                                                                                                   000018